:060000000A128A11122809
:10000800FE00030E83120313A4000408A5000A08C7
:10001800A6007F08A7000A128A1139280A128A1135
:1000280015280A128A115E230A128A11D1000A12AF
:100038008A115F230A128A11D2000A128A116023D8
:100048000A128A11D3000A128A116123D400C3014B
:10005800C401C501C601C701C801C901CA01CB0154
:10006800CC0183010A128A114D290B1D5F2801302A
:10007800C3070318C40A0030C4074E28FE308600A0
:1000880045084928FD308600470887005E28C301D7
:10009800C4015E284408003A031953285E2843081F
:1000A800013A03194228033A03194628043A031966
:1000B8004B285E280B110B1C42290608A000A10141
:1000C8002008F9002108FA000608A00004300310EF
:1000D800A00CFF3E031D6B2820080F39A100A201C8
:1000E8002108FB002208FC007C08A1007B08A00076
:1000F800A009A1090808F03EA200FF30031800304B
:10010800A30021082306031D8B2820082206031DAF
:1001180041290130C9070318CA0A0030CA070A3042
:10012800F0000030F1004A08F3004908F2000A1212
:100138008A11B4210A128A11710883120313C800A4
:100148007008C7004808F1004708F0000A30F200BC
:100158000030F3000A128A1134230A128A11700936
:1001680083120313A0007109A100A00A0319A10AB0
:1001780049082007C5004A0803184A0A2107C6008B
:100188004A08803AFF0080307F02031DCD280630E0
:100198004902031C3B29831203134A08803AFF00D3
:1001A80080307F02031DDA2806304902031CEB2841
:1001B800831203134A08803AFF0080307F02031D30
:1001C800E7280B3049020318EB28C830222983128C
:1001D80003134A08803AFF0080307F02031DF62887
:1001E8000B304902031C0729831203134A08803A7B
:1001F800FF0080307F02031D0329153049020318D0
:10020800072964302229831203134A08803AFF0021
:1002180080307F02031D122915304902031C27294B
:10022800831203134A08803AFF0080307F02031DBF
:100238001F291F304902031827293230831203135C
:10024800CD0000304029831203134A08803AFF008A
:1002580080307F02031D322964304902031C3B2988
:10026800633083120313C9000030CA004129F430F7
:1002780083120313CD000130CE000B102708FF00B6
:1002880026088A0025088400240E8300FE0E7E0EB0
:1002980009000130831203139000A8308B0004304A
:1002A800831603138100F030860087018801F4303B
:1002B80083120313CD000130CE00831203130F08FD
:1002C800A9000E08A8000A128A1155230A128A11D9
:1002D800093083120313BC000030BD000A128A11D2
:1002E800AC220A128A11831203133608BF0035089C
:1002F800BE000A128A115F220A128A11831203139E
:100308003D08D0003C08CF004C085006031D8E293C
:100318004B084F06031961294F0850040319612936
:1003280003304F0650040319612905304F06500465
:100338000319612906304F06500403196129073053
:100348004F065004031961294F0888005008CC0053
:100358004F08CB000A128A110D220A128A1161294C
:10036800F601F11FBE29F009F109F00A0319F10A93
:10037800F601F60AF31FC929F209F309F20A03196B
:10038800F30A0130F4007408F606F701F801700862
:1003980071040319002AF501F50AF11BDF29013060
:1003A8000310F00DF10DFF3E031DD4290130F400B8
:1003B8007408F507D12901300310F70DF80DFF3E39
:1003C800031DE02971087302031DEC2970087202ED
:1003D800031CF5297008F2027108031CF303F302E9
:1003E800771401300310F10CF00CFF3E031DF629C1
:1003F8000130F502031DDF2976080319082AF709D9
:10040800F809F70A0319F80A7808F1007708F000E4
:100418000800442A033083120313AA008A30A90073
:100428005530A800A80B162AA90B162AAA0B162ABB
:100438000800023083120313AA000430A900B9305F
:10044800A800A80B252AA90B252AAA0B252A2C2A9D
:100458000800823083120313A900DD30A800A80B1E
:10046800332AA90B332A0800413083120313A90049
:10047800ED30A800A80B3E2AA90B3E2A432A080003
:10048800831203134E08003A03194E2A013A03193E
:10049800592A5E2A4D08323A0319382A563A03195E
:1004A8002D2AAC3A03191D2A5E2A4D08F43A03197D
:1004B8000E2A5E2A080083120313C201BF1F6B2A8B
:1004C800BE09BF09BE0A0319BF0AC201C20ABD1F7D
:1004D800722ABC09BD09BC0A0319BD0A3C083D04BF
:1004E80003199F2AC101C10ABD1B862A01300310C6
:1004F800BC0DBD0DFF3E031D7B2A0130C000400826
:10050800C107782A3D083F02031D8C2A3C083E0299
:10051800031C942A3C08BE023D08031CBF03BF020B
:1005280001300310BD0CBC0CFF3E031D952A0130A1
:10053800C102031D862A42080319A72ABE09BF095A
:10054800BE0A0319BF0A3F08BD003E08BC000800E8
:10055800831203135408AB005308AA005208A900D9
:100568005108A8004130AF00C630AE004E30AD0093
:100578006D30AC000A128A11F3220A128A11831212
:1005880003132B08D4002A08D3002908D20028080E
:10059800D1003930D107303003183130D20700305C
:1005A80003180130D307003003180130D40751086D
:1005B800B7005208B8005308B9005408BA00103000
:1005C800BB003A0DBA0CB90CB80CB70CBB0BE52A3A
:1005D800FF303705B5007F303805B6000800003019
:1005E80083120313B4000030B3000030B2000030AF
:1005F800B100281C132B2C08B1072D080311031870
:10060800013E031DB2072E0803110318013E031D06
:10061800B3072F0803110318013E031DB407013067
:10062800B0000310AC0DAD0DAE0DAF0DB00B152B1A
:1006380001300310AB0CAA0CA90CA80CFF3E031D3B
:100648001D2B2B082A0429042804031DFD2A34081D
:10065800AB003308AA003208A9003108A800080036
:10066800F401F501701C3E2B7208F4070318F50A13
:100678007308F50701300310F20DF30DFF3E031D5B
:100688003F2B01300310F10CF00CFF3E031D462BED
:1006980070087104031D362B7508F1007408F0000A
:1006A8000800831203132808D1002908D200D301B7
:0C06B800D4010800013400340034003488
:02400E00393F38
:00000001FF
